:020000020000FC
:040000000C94140048
:100024000C94750001E20EBF0FEF0DBF07E610E060
:1000340069D000E001B90FE002B92098289A17E0CE
:1000440017B920E001E00093680001E000936B0021
:100054007894409841984298F1E0EEE25BD0019B9D
:100064000C943500FCCF2E7F0C9438004098419AB4
:10007400429AF1E0E0E44ED020FD0C945F00039B33
:100084000C944500F9CF409841984298F1E0E2E59C
:1000940041D0009B0C944F00FCCF2E7F0C94520057
:1000A400409A4198429AF1E0E4E634D020FD0C9461
:1000B4005F00029B0C942B00F9CF40984198429822
:1000C400F1E0E6E727D0F1E0ECE824D0009B0C94C3
:1000D4006F00019B0C947200F9CF2E7F0C94520098
:1000E4002E7F0C9438000F930FB70F9303B100FDCC
:1000F4000C94800040984198429821E00F910FBFE2
:100104000F9118950093C4001093C50008E1009363
:10011400C10008950591002339F01091C00015FF26
:10012400FCCF0093C600F6CF0895507565727461D4
:1001340020616269657274610D0A00005075657210
:1001440074612063657272616E646F0D0A0050758C
:100154006572746120636572726164610D0A0000E6
:100164005075657274612061627269656E646F0DA9
:100174000A004F6273746163756C6F206465746503
:10018400637461646F0D0A004D6F76696D69656E05
:10019400746F20646574656E69646F20706F72207B
:0C01A4007365677572696461640D0A0080
:00000001FF
