:020000020000FC
:1000000000C008E00EBF0FEF0DBF07E610E00ED0F6
:1000100024D014D0602F19D0663020F405B920E028
:1000200028B9F7CF20E025B908B9F3CF0093C40071
:100030001093C50008E10093C10008951091C0001D
:1000400017FFFCCF0091C6000895402FC0E0D2E01A
:10005000C40F5527D51F088108953FE334B933E015
:1000600037B930E035B938B901D00895C0E0D2E0F1
:1000700041E0499342E0499344E0499348E0499381
:1000800040E1499340E2499341E0499342E049937A
:020090000895D1
:00000001FF
