:020000020000FC
:0200000016C028
:10002C001EC508E00EBF0FEF0DBF07E610E010D0A5
:10003C000E94BE000E94C800882712D052985A987D
:10004C0053985B98112722271DE328E0EFD4C9C4ED
:10005C000093C4001093C50008E10093C1000895FB
:10006C000DE077D00AE075D00DE473D005E471D0C3
:10007C000EE46FD005E56DD00DE06BD00AE069D0D1
:10008C0001E367D000E265D00DE263D000E261D0FD
:10009C0003E55FD005E45DD00EE45BD001E459D0FC
:1000AC000CE457D000E255D001E353D00DE051D011
:1000BC000AE04FD002E34DD000E24BD00DE249D024
:1000CC0000E247D003E545D005E443D00EE441D02F
:1000DC0001E43FD00CE43DD000E23BD002E339D048
:1000EC000DE037D00AE035D003E533D005E631D04A
:1000FC000CE62FD005E62DD003E62BD003E629D055
:10010C0009E627D00FE625D00EE623D005E621D050
:10011C000AE31FD000E21DD024D0013319F00233C2
:10012C0041F0FACF91E088270DE013D00AE011D00E
:10013C00089592E088270DE00CD00AE00AD00895CB
:10014C000E94B7000030E1F321E0020F02D000E082
:10015C00F7CF1091C00015FFFCCF0093C60000E054
:10016C0008951091C00017FFFCCF0091C6000895B0
:10017C004FE347B9442748B9209A219A259A2898E1
:10018C002998089500000895012C0E94CF00142F87
:10019C0008950E94F100C6E5D2E0C00D3327D31FAD
:1001AC00488108950E94F402C6E5D2E0C00D3327C1
:1001BC00D31F48810895542F4F7348B9452F469546
:1001CC0046954695469546954695437055B15C7F48
:1001DC00542B55B90895C6E5D2E040E0499340E070
:1001EC00499340E0499340E0499340E0499340E013
:1001FC00499340E0499340E0499340E0499340E003
:10020C00499340E0499340E0499340E0499340E0F2
:10021C00499340E0499340E0499340E0499340E0E2
:10022C00499340E0499340E0499340E0499340E0D2
:10023C00499340E0499340E0499340E0499340E0C2
:10024C00499340E0499340E0499340E0499340E0B2
:10025C00499340E0499340E0499340E0499340E0A2
:10026C00499340E0499340E0499340E0499340E092
:10027C00499340E0499340E0499340E0499340E082
:10028C00499340E0499340E0499340E0499340E072
:10029C00499340E0499340E0499340E0499340E062
:1002AC00499340E0499340E0499340E0499340E052
:1002BC00499340E0499340E0499340E0499340E042
:1002CC00499340E0499340E0499340E0499340E032
:1002DC00499340E0499340E0499340E0499340E022
:1002EC00499340E0499340E0499340E0499340E012
:1002FC00499340E0499340E0499340E0499340E002
:10030C00499340E0499340E0499340E0499340E0F1
:10031C00499340E0499340E0499340E0499340E0E1
:10032C00499340E0499340E0499340E0499340E0D1
:10033C00499340E0499340E0499340E0499340E0C1
:10034C00499340E0499340E0499340E0499340E0B1
:10035C00499340E0499340E0499340E0499340E0A1
:10036C00499340E0499340E0499340E0499340E091
:10037C00499340E0499340E0499340E0499340E081
:10038C00499340E0499340E0499340E0499340E071
:10039C00499340E0499340E0499340E0499340E061
:1003AC00499340E0499340E0499340E0499340E051
:1003BC00499340E0499340E0499340E0499340E041
:1003CC00499340E0499340E0499340E0499340E031
:1003DC00499340E0499340E049934FEF49934FEFE5
:1003EC0049934FEF49934FEF49934FEF49934FEF99
:1003FC0049934FEF49934FEF49934FEF49934FEF89
:10040C0049934FEF49934FEF49934FEF49934FEF78
:10041C0049934FEF49934FEF49934FEF49934FEF68
:10042C0049934FEF49934FEF49934FEF49934FEF58
:10043C0049934FEF49934FEF49934FEF49934FEF48
:10044C0049934FEF49934FEF49934FEF49934FEF38
:10045C0049934FEF49934FEF49934FEF49934FEF28
:10046C0049934FEF49934FEF49934FEF49934FEF18
:10047C0049934FEF49934FEF49934FEF49934FEF08
:10048C0049934FEF49934FEF49934FEF49934FEFF8
:10049C0049934FEF49934FEF49934FEF49934FEFE8
:1004AC0049934FEF49934FEF49934FEF49934FEFD8
:1004BC0049934FEF49934FEF49934FEF49934FEFC8
:1004CC0049934FEF49934FEF49934FEF49934FEFB8
:1004DC0049934FEF49934FEF49934FEF49934FEFA8
:1004EC0049934FEF49934FEF49934FEF49934FEF98
:1004FC0049934FEF49934FEF49934FEF49934FEF88
:10050C0049934FEF49934FEF49934FEF49934FEF77
:10051C0049934FEF49934FEF49934FEF49934FEF67
:10052C0049934FEF49934FEF49934FEF49934FEF57
:10053C0049934FEF49934FEF49934FEF49934FEF47
:10054C0049934FEF49934FEF49934FEF49934FEF37
:10055C0049934FEF49934FEF49934FEF49934FEF27
:10056C0049934FEF49934FEF49934FEF49934FEF17
:10057C0049934FEF49934FEF49934FEF49934FEF07
:10058C0049934FEF49934FEF49934FEF49934FEFF7
:10059C0049934FEF49934FEF49934FEF49934FEFE7
:1005AC0049934FEF49934FEF49934FEF49934FEFD7
:1005BC0049934FEF49934FEF49934FEF49934FEFC7
:1005CC0049934FEF49934FEF49934FEF49934FEFB7
:1005DC0049934FEF49934FEF49930895C6E5D2E005
:1005EC004FEF49934EEF49934DEF49934CEF49939D
:1005FC004BEF49934AEF499349EF499348EF49939D
:10060C0047EF499346EF499345EF499344EF49939C
:10061C0043EF499342EF499341EF499340EF49939C
:10062C004FEE49934EEE49934DEE49934CEE499360
:10063C004BEE49934AEE499349EE499348EE499360
:10064C0047EE499346EE499345EE499344EE499360
:10065C0043EE499342EE499341EE499340EE499360
:10066C004FED49934EED49934DED49934CED499324
:10067C004BED49934AED499349ED499348ED499324
:10068C0047ED499346ED499345ED499344ED499324
:10069C0043ED499342ED499341ED499340ED499324
:1006AC004FEC49934EEC49934DEC49934CEC4993E8
:1006BC004BEC49934AEC499349EC499348EC4993E8
:1006CC0047EC499346EC499345EC499344EC4993E8
:1006DC0043EC499342EC499341EC499340EC4993E8
:1006EC004FEB49934EEB49934DEB49934CEB4993AC
:1006FC004BEB49934AEB499349EB499348EB4993AC
:10070C0047EB499346EB499345EB499344EB4993AB
:10071C0043EB499342EB499341EB499340EB4993AB
:10072C004FEA49934EEA49934DEA49934CEA49936F
:10073C004BEA49934AEA499349EA499348EA49936F
:10074C0047EA499346EA499345EA499344EA49936F
:10075C0043EA499342EA499341EA499340EA49936F
:10076C004FE949934EE949934DE949934CE9499333
:10077C004BE949934AE9499349E9499348E9499333
:10078C0047E9499346E9499345E9499344E9499333
:10079C0043E9499342E9499341E9499340E9499333
:1007AC004FE849934EE849934DE849934CE84993F7
:1007BC004BE849934AE8499349E8499348E84993F7
:1007CC0047E8499346E8499345E8499344E84993F7
:1007DC0043E8499342E8499341E8499340E84993F7
:1007EC004FE749934EE749934DE749934CE74993BB
:1007FC004BE749934AE7499349E7499348E74993BB
:10080C0047E7499346E7499345E7499344E74993BA
:10081C0043E7499342E7499341E7499340E74993BA
:10082C004FE649934EE649934DE649934CE649937E
:10083C004BE649934AE6499349E6499348E649937E
:10084C0047E6499346E6499345E6499344E649937E
:10085C0043E6499342E6499341E6499340E649937E
:10086C004FE549934EE549934DE549934CE5499342
:10087C004BE549934AE5499349E5499348E5499342
:10088C0047E5499346E5499345E5499344E5499342
:10089C0043E5499342E5499341E5499340E5499342
:1008AC004FE449934EE449934DE449934CE4499306
:1008BC004BE449934AE4499349E4499348E4499306
:1008CC0047E4499346E4499345E4499344E4499306
:1008DC0043E4499342E4499341E4499340E4499306
:1008EC004FE349934EE349934DE349934CE34993CA
:1008FC004BE349934AE3499349E3499348E34993CA
:10090C0047E3499346E3499345E3499344E34993C9
:10091C0043E3499342E3499341E3499340E34993C9
:10092C004FE249934EE249934DE249934CE249938D
:10093C004BE249934AE2499349E2499348E249938D
:10094C0047E2499346E2499345E2499344E249938D
:10095C0043E2499342E2499341E2499340E249938D
:10096C004FE149934EE149934DE149934CE1499351
:10097C004BE149934AE1499349E1499348E1499351
:10098C0047E1499346E1499345E1499344E1499351
:10099C0043E1499342E1499341E1499340E1499351
:1009AC004FE049934EE049934DE049934CE0499315
:1009BC004BE049934AE0499349E0499348E0499315
:1009CC0047E0499346E0499345E0499344E0499315
:1009DC0043E0499342E0499341E0499340E0499315
:1009EC0008954A9903C04B990BC0FBCF18D04A9B72
:1009FC00F8CF1695279510938900209388000AC08C
:100A0C000ED04B9BEECF220F111F10938900209319
:100A1C00880000C04A99FECF4B99FCCFE2CF32E35D
:100A2C004FEF4A95F1F73A95D9F7089500E0009306
:100A3C0080000093810000E0009385000093840007
:100A4C00109389002093880002E00093160002E0C6
:100A5C0000936F000DE000938100789408950F923D
:100A6C000FB60F923F934F935F93CF93DF93259ADB
:100A7C001D9A913019F0923031F009C0082E89DBA3
:100A8C009ADB839504C0082E8DDB95DB8395DF9173
:100A9C00CF915F914F913F910F900FBE0F90189592
:00000001FF
