:020000020000FC
:0200000032C00C
:10006400AFC00FEF0DBF01E20EBF11E30EE100932D
:10007400080207E004B9289A07E60093C4000027A1
:100084000093C50008E90093C10006E00093C20094
:1000940075D07894113321F4E6EFF1E02CD0FACF47
:1000A400123321F4EAE2F2E026D0F4CF133321F440
:1000B400EEECF2E04DD0EECF143321F4E6EDF2E0B5
:1000C40047D0E8CF153321F4EEEDF2E041D0E2CF92
:1000D400163321F4E6EEF2E03BD0DCCF173321F403
:1000E400EEEEF2E035D0D6CF183321F4E6EFF2E0AD
:1000F4002FD0D0CFCFCF812FC0E0D2E0002748E06F
:1001040009934A95E9F705910E3FB9F0C0E0D2E0B2
:100114001990299039904990599069907990C0E04C
:10012400D2E029923992499259926992799209932B
:1001340006D017D0181711F4E6CF08950895C0E03B
:10014400D2E031E029912AD033953930D9F7089596
:10015400812F31E0259122D033953930D9F701D060
:1001640008955091080268E778EC7A95F1F76A955A
:10017400D9F7181711F45A95B1F7089539E020E02A
:100184000DD03AE023E00AD03BE027E007D03CE082
:1001940021E004D03FE020E001D008952898032F07
:1001A40004D0022F02D0289A089548E0299807FD28
:1001B4002A9A07FF2A98299A000F4A95B9F70895B1
:1001C4000091C6000B3221F00D3251F0102F18951A
:1001D40000910802053061F005500093080218955B
:1001E40000910802003521F045E0040F0093080255
:1001F40018950000000000000000FF061C06FF0028
:10020400FF111111FF00FF8080808000FF8080803B
:100214008000FF8080808000FF111111FF0000002A
:1002240000000000FE000000000000000000FF06C7
:100234001C06FF00FF111111FF00FF1131518E0048
:100244007E8181814200FF9999998100FF8080809D
:1002540080007E8181817E007E8181817E007E811D
:1002640081817E000000000000000000FF99999940
:100274008100FF061C06FF00FF1111110E00FF1183
:1002840031518E00FF9999998100FF040810FF00F5
:10029400FF8181423C00FF99999981000000000090
:1002A400000000003F4080403F007F8080807F004E
:1002B400FF9999998100FF80808080007E818181EF
:1002C4007E00000000000000FE00995A3CFFFF3C45
:1002D4005A99799996969696997910204F80804FDD
:1002E400201010204F808646261060C08F60608FDB
:0A02F400C0600C1E3E7C3E1E0C0094
:00000001FF
